{
  "transactions": [
    {
      "hash": "0x7e4aedd77dd5ec1fa9b36fcdc3c5b667593404aeae0577696b283453853bf394",
      "transactionType": "CALL",
      "contractName": null,
      "contractAddress": "0x2626937ae0e0b77185e9bd387b07f117a02bb9ff",
      "function": "applyChainUpdates((uint64,bool,bytes,bytes,(bool,uint128,uint128),(bool,uint128,uint128))[])",
      "arguments": [
        "[(6898391096552792247, true, 0x00000000000000000000000074727fc8402f5db80d2e7201147b75952e44026d, 0x0000000000000000000000004b9a34ae118954b6e084c27c6e3cdfde71ed3106, (false, 0, 0), (false, 0, 0))]"
      ],
      "transaction": {
        "from": "0xafa6ea6fb47b1b61e1625c1ec8a15647d7bb4b01",
        "to": "0x2626937ae0e0b77185e9bd387b07f117a02bb9ff",
        "gas": "0x5580a",
        "value": "0x0",
        "input": "0xdb6327dc0000000000000000000000000000000000000000000000000000000000000020000000000000000000000000000000000000000000000000000000000000000100000000000000000000000000000000000000000000000000000000000000200000000000000000000000000000000000000000000000005fbc02272fbf20b7000000000000000000000000000000000000000000000000000000000000000100000000000000000000000000000000000000000000000000000000000001400000000000000000000000000000000000000000000000000000000000000180000000000000000000000000000000000000000000000000000000000000000000000000000000000000000000000000000000000000000000000000000000000000000000000000000000000000000000000000000000000000000000000000000000000000000000000000000000000000000000000000000000000000000000000000000000000000000000000000000000000000000000000000000000000000000000000000000000000000000000000000000000000000000000000000000000000000000000000000000000000000000000000000000000000000002000000000000000000000000074727fc8402f5db80d2e7201147b75952e44026d00000000000000000000000000000000000000000000000000000000000000200000000000000000000000004b9a34ae118954b6e084c27c6e3cdfde71ed3106",
        "nonce": "0x35",
        "chainId": "0xaa36a7"
      },
      "additionalContracts": [],
      "isFixedGasLimit": false
    }
  ],
  "receipts": [
    {
      "status": "0x1",
      "cumulativeGasUsed": "0xd15830",
      "logs": [
        {
          "address": "0x2626937ae0e0b77185e9bd387b07f117a02bb9ff",
          "topics": [
            "0x8d340f17e19058004c20453540862a9c62778504476f6756755cb33bcd6c38c2"
          ],
          "data": "0x0000000000000000000000000000000000000000000000005fbc02272fbf20b7000000000000000000000000000000000000000000000000000000000000010000000000000000000000000000000000000000000000000000000000000000000000000000000000000000000000000000000000000000000000000000000000000000000000000000000000000000000000000000000000000000000000000000000000000000000000000000000000000000000000000000000000000000000000000000000000000000000000000000000000000000000000000000000000000000000000000000000000000000000000000000000000000000000000000000000000000000000000000000000000000000000000000000000000000000200000000000000000000000004b9a34ae118954b6e084c27c6e3cdfde71ed3106",
          "blockHash": "0xe76bee9fe786a4a73bdbb9741add10fc01e5025826b6a1473e818794363e1d78",
          "blockNumber": "0x7b61a7",
          "blockTimestamp": "0x67f6c7a0",
          "transactionHash": "0x7e4aedd77dd5ec1fa9b36fcdc3c5b667593404aeae0577696b283453853bf394",
          "transactionIndex": "0x54",
          "logIndex": "0x10b",
          "removed": false
        }
      ],
      "logsBloom": "0x00000000000000400000000000000000000000000000000000000000000000000000000000000000000000000000000000000000000000000004000000000000000000000000000000000000000000000000000000000000000000000000000000000000000000000000000000000000000000010000000000002000000000040000000000000000000000000000000000000000000000000000000000000000000000000000000000000000000000000000000000000000000000000000000000000000000000000000000000000000000000000000000000000000000000000000000000000000000000000000000000000000000000000100000000000000",
      "type": "0x2",
      "transactionHash": "0x7e4aedd77dd5ec1fa9b36fcdc3c5b667593404aeae0577696b283453853bf394",
      "transactionIndex": "0x54",
      "blockHash": "0xe76bee9fe786a4a73bdbb9741add10fc01e5025826b6a1473e818794363e1d78",
      "blockNumber": "0x7b61a7",
      "gasUsed": "0x3a76a",
      "effectiveGasPrice": "0x106b7f",
      "from": "0xafa6ea6fb47b1b61e1625c1ec8a15647d7bb4b01",
      "to": "0x2626937ae0e0b77185e9bd387b07f117a02bb9ff",
      "contractAddress": null
    }
  ],
  "libraries": [],
  "pending": [],
  "returns": {},
  "timestamp": 1744226207,
  "chain": 11155111,
  "commit": "3e62273"
}