{
  "transactions": [
    {
      "hash": "0x6b4d7cc5e79abbf61f1bbceea0487e8a7f46a2adead9e858779385db7a2cd440",
      "transactionType": "CALL",
      "contractName": null,
      "contractAddress": "0xb7d59fd874a051d0f8bc0cb7c6bd35c594f8e583",
      "function": "applyChainUpdates((uint64,bool,bytes,bytes,(bool,uint128,uint128),(bool,uint128,uint128))[])",
      "arguments": [
        "[(6898391096552792247, true, 0x00000000000000000000000074671a9f156abde4059db880d4d9d564980f8d6c, 0x0000000000000000000000004168077057d9e49b83592c815449011828da0309, (false, 0, 0), (false, 0, 0))]"
      ],
      "transaction": {
        "from": "0xafa6ea6fb47b1b61e1625c1ec8a15647d7bb4b01",
        "to": "0xb7d59fd874a051d0f8bc0cb7c6bd35c594f8e583",
        "gas": "0x5580a",
        "value": "0x0",
        "input": "0xdb6327dc0000000000000000000000000000000000000000000000000000000000000020000000000000000000000000000000000000000000000000000000000000000100000000000000000000000000000000000000000000000000000000000000200000000000000000000000000000000000000000000000005fbc02272fbf20b7000000000000000000000000000000000000000000000000000000000000000100000000000000000000000000000000000000000000000000000000000001400000000000000000000000000000000000000000000000000000000000000180000000000000000000000000000000000000000000000000000000000000000000000000000000000000000000000000000000000000000000000000000000000000000000000000000000000000000000000000000000000000000000000000000000000000000000000000000000000000000000000000000000000000000000000000000000000000000000000000000000000000000000000000000000000000000000000000000000000000000000000000000000000000000000000000000000000000000000000000000000000000000000000000000000000000002000000000000000000000000074671a9f156abde4059db880d4d9d564980f8d6c00000000000000000000000000000000000000000000000000000000000000200000000000000000000000004168077057d9e49b83592c815449011828da0309",
        "nonce": "0x2b",
        "chainId": "0xaa36a7"
      },
      "additionalContracts": [],
      "isFixedGasLimit": false
    }
  ],
  "receipts": [
    {
      "status": "0x1",
      "cumulativeGasUsed": "0x908e0d",
      "logs": [
        {
          "address": "0xb7d59fd874a051d0f8bc0cb7c6bd35c594f8e583",
          "topics": [
            "0x8d340f17e19058004c20453540862a9c62778504476f6756755cb33bcd6c38c2"
          ],
          "data": "0x0000000000000000000000000000000000000000000000005fbc02272fbf20b7000000000000000000000000000000000000000000000000000000000000010000000000000000000000000000000000000000000000000000000000000000000000000000000000000000000000000000000000000000000000000000000000000000000000000000000000000000000000000000000000000000000000000000000000000000000000000000000000000000000000000000000000000000000000000000000000000000000000000000000000000000000000000000000000000000000000000000000000000000000000000000000000000000000000000000000000000000000000000000000000000000000000000000000000000000200000000000000000000000004168077057d9e49b83592c815449011828da0309",
          "blockHash": "0x6cb817f2904def0db8e15a3f23095779fcc7a85d0b284568a9f87dbf431c8d7f",
          "blockNumber": "0x7b6153",
          "blockTimestamp": "0x67f6c398",
          "transactionHash": "0x6b4d7cc5e79abbf61f1bbceea0487e8a7f46a2adead9e858779385db7a2cd440",
          "transactionIndex": "0x52",
          "logIndex": "0x93",
          "removed": false
        }
      ],
      "logsBloom": "0x00000000000000400000000000000000000004000000000000000000000000000000000000000000000000000000000000000000000000000004000000000000000000000000000000000000000000000020000000000000000000000000000000000000000000000000000000000000000000000000000000000000000000000000000000000000000100000000000000000000000000000000000000000000000000000000000000000000000000000000000000000000000000000000000000000000000000000000000000000000000000000000000000000000000000000000000000000000000000000000000000000000000000000100000000000000",
      "type": "0x2",
      "transactionHash": "0x6b4d7cc5e79abbf61f1bbceea0487e8a7f46a2adead9e858779385db7a2cd440",
      "transactionIndex": "0x52",
      "blockHash": "0x6cb817f2904def0db8e15a3f23095779fcc7a85d0b284568a9f87dbf431c8d7f",
      "blockNumber": "0x7b6153",
      "gasUsed": "0x3a76a",
      "effectiveGasPrice": "0x158336",
      "from": "0xafa6ea6fb47b1b61e1625c1ec8a15647d7bb4b01",
      "to": "0xb7d59fd874a051d0f8bc0cb7c6bd35c594f8e583",
      "contractAddress": null
    }
  ],
  "libraries": [],
  "pending": [],
  "returns": {},
  "timestamp": 1744225179,
  "chain": 11155111,
  "commit": "3e62273"
}