{
  "transactions": [
    {
      "hash": "0xc60d91ea949b24aba7df033823403184f3dc00fdab75f8091db26629a613adb2",
      "transactionType": "CREATE",
      "contractName": "Vault",
      "contractAddress": "0x1436d1a21aa657a882a26a50ad742cd70d27d5e5",
      "function": null,
      "arguments": [
        "0x71ED43a7A2C43aFAC6ABfd39Eadfa29155bed511"
      ],
      "transaction": {
        "from": "0xafa6ea6fb47b1b61e1625c1ec8a15647d7bb4b01",
        "gas": "0x582f6",
        "value": "0x0",
        "input": "0x60a060405234801561000f575f80fd5b506040516104a83803806104a883398101604081905261002e9161003f565b6001600160a01b031660805261006c565b5f6020828403121561004f575f80fd5b81516001600160a01b0381168114610065575f80fd5b9392505050565b60805161040b61009d5f395f8181604f0152818160b50152818160e60152818161021901526102a9015261040b5ff3fe608060405260043610610036575f3560e01c806334a4edea14610041578063d0e30db01461008a578063db006a7514610094575f80fd5b3661003d57005b5f80fd5b34801561004c575f80fd5b507f00000000000000000000000000000000000000000000000000000000000000006040516001600160a01b03909116815260200160405180910390f35b6100926100b3565b005b34801561009f575f80fd5b506100926100ae3660046103a7565b6101fc565b7f00000000000000000000000000000000000000000000000000000000000000006001600160a01b031663156e29f633347f00000000000000000000000000000000000000000000000000000000000000006001600160a01b0316635257b5666040518163ffffffff1660e01b8152600401602060405180830381865afa158015610140573d5f803e3d5ffd5b505050506040513d601f19601f8201168201806040525081019061016491906103be565b6040516001600160e01b031960e086901b1681526001600160a01b039093166004840152602483019190915260448201526064015f604051808303815f87803b1580156101af575f80fd5b505af11580156101c1573d5f803e3d5ffd5b50506040513481523392507fe1fffcc4923d04b559f4d29a8bfc6cda04eb5b0d3c460751c2402c5c5cc9109c915060200160405180910390a2565b5f19810361028d576040516370a0823160e01b81523360048201527f00000000000000000000000000000000000000000000000000000000000000006001600160a01b0316906370a0823190602401602060405180830381865afa158015610266573d5f803e3d5ffd5b505050506040513d601f19601f8201168201806040525081019061028a91906103be565b90505b604051632770a7eb60e21b8152336004820152602481018290527f00000000000000000000000000000000000000000000000000000000000000006001600160a01b031690639dc29fac906044015f604051808303815f87803b1580156102f2575f80fd5b505af1158015610304573d5f803e3d5ffd5b50506040515f925033915083908381818185875af1925050503d805f8114610347576040519150601f19603f3d011682016040523d82523d5f602084013e61034c565b606091505b505090508061036e576040516303eff1c560e31b815260040160405180910390fd5b60405182815233907f222838db2794d11532d940e8dec38ae307ed0b63cd97c233322e221f998767a69060200160405180910390a25050565b5f602082840312156103b7575f80fd5b5035919050565b5f602082840312156103ce575f80fd5b505191905056fea2646970667358221220e8702f62cbc903b599e93b41ff8c42766a1f2122cf557d82fbf03487672bb3cf64736f6c6343000818003300000000000000000000000071ed43a7a2c43afac6abfd39eadfa29155bed511",
        "nonce": "0x33",
        "chainId": "0xaa36a7"
      },
      "additionalContracts": [],
      "isFixedGasLimit": false
    },
    {
      "hash": "0x78d4a096026b83cbf637ff3a2c0036ae5969888c070d8ceff3a6e1a96ff8a7da",
      "transactionType": "CALL",
      "contractName": null,
      "contractAddress": "0x71ed43a7a2c43afac6abfd39eadfa29155bed511",
      "function": "grantMintAndBurnRole(address)",
      "arguments": [
        "0x1436d1a21AA657a882a26A50ad742CD70d27D5e5"
      ],
      "transaction": {
        "from": "0xafa6ea6fb47b1b61e1625c1ec8a15647d7bb4b01",
        "to": "0x71ed43a7a2c43afac6abfd39eadfa29155bed511",
        "gas": "0x10620",
        "value": "0x0",
        "input": "0x7cfb3d710000000000000000000000001436d1a21aa657a882a26a50ad742cd70d27d5e5",
        "nonce": "0x34",
        "chainId": "0xaa36a7"
      },
      "additionalContracts": [],
      "isFixedGasLimit": false
    }
  ],
  "receipts": [
    {
      "status": "0x1",
      "cumulativeGasUsed": "0x72983d",
      "logs": [],
      "logsBloom": "0x00000000000000000000000000000000000000000000000000000000000000000000000000000000000000000000000000000000000000000000000000000000000000000000000000000000000000000000000000000000000000000000000000000000000000000000000000000000000000000000000000000000000000000000000000000000000000000000000000000000000000000000000000000000000000000000000000000000000000000000000000000000000000000000000000000000000000000000000000000000000000000000000000000000000000000000000000000000000000000000000000000000000000000000000000000000",
      "type": "0x2",
      "transactionHash": "0xc60d91ea949b24aba7df033823403184f3dc00fdab75f8091db26629a613adb2",
      "transactionIndex": "0x37",
      "blockHash": "0xedd230b361cf55dea1351b3cc638ac0bfa799532dd399647cf778a20ee83042c",
      "blockNumber": "0x7b61a6",
      "gasUsed": "0x43d5b",
      "effectiveGasPrice": "0x10822e",
      "from": "0xafa6ea6fb47b1b61e1625c1ec8a15647d7bb4b01",
      "to": null,
      "contractAddress": "0x1436d1a21aa657a882a26a50ad742cd70d27d5e5"
    },
    {
      "status": "0x1",
      "cumulativeGasUsed": "0x735604",
      "logs": [
        {
          "address": "0x71ed43a7a2c43afac6abfd39eadfa29155bed511",
          "topics": [
            "0x2f8788117e7eff1d82e926ec794901d17c78024a50270940304540a733656f0d",
            "0x6630d677ff5db06d137fa02fbb8cda7509f801eaa40351c4fd331a43b4798796",
            "0x0000000000000000000000001436d1a21aa657a882a26a50ad742cd70d27d5e5",
            "0x000000000000000000000000afa6ea6fb47b1b61e1625c1ec8a15647d7bb4b01"
          ],
          "data": "0x",
          "blockHash": "0xedd230b361cf55dea1351b3cc638ac0bfa799532dd399647cf778a20ee83042c",
          "blockNumber": "0x7b61a6",
          "blockTimestamp": "0x67f6c794",
          "transactionHash": "0x78d4a096026b83cbf637ff3a2c0036ae5969888c070d8ceff3a6e1a96ff8a7da",
          "transactionIndex": "0x38",
          "logIndex": "0x49",
          "removed": false
        }
      ],
      "logsBloom": "0x00000104000000000000400000000010000000000200000000000000000000000000000000000000000000000000000000000000000001000000000000000000000000000000000000000000000000000000000110000000000000000000000000000000000000000000000000000000000000000000000000000000000000000000000000000000000000000000000008000000000000000000000000000000400000000008000000000000000000000000000000000000001000000000000000000000000000000000000040000000000000000000000100000000000000000000000000000000000000000000000000000000000000000008000000000000",
      "type": "0x2",
      "transactionHash": "0x78d4a096026b83cbf637ff3a2c0036ae5969888c070d8ceff3a6e1a96ff8a7da",
      "transactionIndex": "0x38",
      "blockHash": "0xedd230b361cf55dea1351b3cc638ac0bfa799532dd399647cf778a20ee83042c",
      "blockNumber": "0x7b61a6",
      "gasUsed": "0xbdc7",
      "effectiveGasPrice": "0x10822e",
      "from": "0xafa6ea6fb47b1b61e1625c1ec8a15647d7bb4b01",
      "to": "0x71ed43a7a2c43afac6abfd39eadfa29155bed511",
      "contractAddress": null
    }
  ],
  "libraries": [],
  "pending": [],
  "returns": {
    "vault": {
      "internal_type": "contract Vault",
      "value": "0x1436d1a21AA657a882a26A50ad742CD70d27D5e5"
    }
  },
  "timestamp": 1744226196,
  "chain": 11155111,
  "commit": "3e62273"
}